:1000000019C099C032C031C030C02FC02EC02DC021
:100010002CC02BC02AC029C028C076C026C025C04D
:1000200024C023C039C021C020C01FC01EC01DC0B5
:100030001CC01BC011241FBECFEFD4E0DEBFCDBF5C
:1000400011E0A0E0B1E0E6EAF3E002C005900D9215
:10005000A43AB107D9F721E0A4EAB1E001C01D92AA
:10006000A93EB207E1F7FDD09CC1CACFE0ECF0E0B9
:10007000908195FFFDCF8093C6000895CF93DF93C5
:10008000EC018881882329F02196F0DF8991811184
:10009000FCCFDF91CF9108951F920F920FB60F9270
:1000A00011248F93EF93FF93E0ECF0E0808188239D
:1000B000ECF78091C0008C71F9F48091A501803437
:1000C00010F01092A501E091A501F0E08091C6002A
:1000D000EA55FE4F8083E091A501F0E0EA55FE4F1E
:1000E00080818D3021F481E08093E60105C080910C
:1000F000A5018F5F8093A501FF91EF918F910F90E4
:100100000FBE0F901F9018951F920F920FB60F926F
:1001100011248F939F938091E7019091E8010196BC
:100120009093E8018093E7019F918F910F900FBE0C
:100130000F901F9018951F920F920FB60F921124D7
:100140005B9AE8980F900FBE0F901F9018950F9331
:100150001F93CF93DF938C012FEF8FE995E0215010
:1001600080409040E1F700C00000C8E0D0E00BC044
:100170002FEF8FE995E0215080409040E1F700C0DB
:100180000000219789F060E071E086EA91E0EFD00D
:10019000892B61F4B80186EA91E0E9D0892B41F31B
:1001A0001092A50181E003C080E001C080E0DF91F2
:1001B000CF911F910F9108951092E8011092E701DD
:1001C000109280001092810010928500109284009D
:1001D000813029F4E1E8F0E0808183608083089534
:1001E0005B9883B7817F846083BFF89483B7816015
:1001F00083BF7894889583B78E7F83BF789481E09E
:10020000DBDF5B9A089514BE0FB6F894A895809131
:100210006000886180936000109260000FBEF894C7
:1002200080E284B915B887B918B888E08AB95298BD
:100230005A9AE89A80E480937C0085E880937A005B
:1002400081E080936F00B8DF1092C50087E1809352
:10025000C40088E98093C10086E08093C20078944E
:100260000895D1DF8BE102DF8EE391E007DF2FEF0E
:100270008FE796E1215080409040E1F700C00000F8
:1002800088E491E064DF882379F3E898E89A8CE4C5
:1002900091E0F4DE81E191E05ADF87E591E0EEDE66
:1002A00081E191E054DF8AE691E0E8DE81E191E0CE
:1002B0004EDF86E791E0E2DE81E191E048DF459A9A
:1002C0005B9AA8958091E6018823F9F01092E601E7
:1002D00066E871E086EA91E04AD0892B71F02D9AA8
:1002E00081E06ADF81E08093A4016BE871E086EA37
:1002F00091E03DD0892B41F40CC06BE871E086EAB7
:1003000091E035D0892B09F02D9A8091A40181309C
:1003100029F58091E7019091E801029791F480E935
:1003200091E0ACDE81E191E012DF882349F0809119
:10033000E7019091E80101969093E8018093E7012D
:10034000E89A8091E7019091E8010D9708F4B9CF00
:100350002D9881E031DF1092A401B3CF8091E701A5
:100360009091E801059708F4ACCF3ADFAACFFB01E2
:1003700051915523A9F0BF01DC014D914517411161
:10038000E1F759F4CD010190002049F04D9140155D
:100390004111C9F3FB014111EFCF81E090E00197DA
:0603A0000895F894FFCF60
:1003A6004552524F520041542B434D54453F0D0A7E
:1003B600004F4B004C616D706F74696C613A2000A0
:1003C60063200A416B756E206A616E6E6974653AC8
:1003D600200041542B434D47533D22003E004154DB
:1003E6002B435245473F0D00302C310041542B43DF
:1003F6004D47463D310D0041542B434E4D493D324C
:100406002C322C302C302C300D0041542B435343CE
:100416004C4B3D320D0041542B434E45544C4947FD
:1004260048543D300D0052494E47002B434D540071
:100436004154480D0A002B333538353035353332C3
:040446003832320016
:00000001FF
